{
  "_format": "hh-sol-artifact-1",
  "contractName": "ZeusInsurance",
  "sourceName": "contracts/ZeusInsurance.sol",
  "abi": [
    {
      "inputs": [
        {
          "internalType": "address",
          "name": "_usdc",
          "type": "address"
        }
      ],
      "stateMutability": "nonpayable",
      "type": "constructor"
    },
    {
      "inputs": [
        {
          "internalType": "address",
          "name": "owner",
          "type": "address"
        }
      ],
      "name": "OwnableInvalidOwner",
      "type": "error"
    },
    {
      "inputs": [
        {
          "internalType": "address",
          "name": "account",
          "type": "address"
        }
      ],
      "name": "OwnableUnauthorizedAccount",
      "type": "error"
    },
    {
      "inputs": [],
      "name": "ReentrancyGuardReentrantCall",
      "type": "error"
    },
    {
      "anonymous": false,
      "inputs": [
        {
          "indexed": true,
          "internalType": "address",
          "name": "previousOwner",
          "type": "address"
        },
        {
          "indexed": true,
          "internalType": "address",
          "name": "newOwner",
          "type": "address"
        }
      ],
      "name": "OwnershipTransferred",
      "type": "event"
    },
    {
      "anonymous": false,
      "inputs": [
        {
          "indexed": true,
          "internalType": "uint256",
          "name": "policyId",
          "type": "uint256"
        },
        {
          "indexed": false,
          "internalType": "uint256",
          "name": "amount",
          "type": "uint256"
        }
      ],
      "name": "PayoutExecuted",
      "type": "event"
    },
    {
      "anonymous": false,
      "inputs": [
        {
          "indexed": true,
          "internalType": "uint256",
          "name": "policyId",
          "type": "uint256"
        },
        {
          "indexed": true,
          "internalType": "address",
          "name": "buyer",
          "type": "address"
        },
        {
          "indexed": true,
          "internalType": "address",
          "name": "seller",
          "type": "address"
        },
        {
          "indexed": false,
          "internalType": "uint256",
          "name": "amount",
          "type": "uint256"
        },
        {
          "indexed": false,
          "internalType": "uint256",
          "name": "premium",
          "type": "uint256"
        },
        {
          "indexed": false,
          "internalType": "uint256",
          "name": "retryDeadline",
          "type": "uint256"
        }
      ],
      "name": "PolicyCreated",
      "type": "event"
    },
    {
      "anonymous": false,
      "inputs": [
        {
          "indexed": true,
          "internalType": "uint256",
          "name": "policyId",
          "type": "uint256"
        }
      ],
      "name": "PolicyExpired",
      "type": "event"
    },
    {
      "inputs": [
        {
          "internalType": "address",
          "name": "seller",
          "type": "address"
        },
        {
          "internalType": "uint256",
          "name": "amount",
          "type": "uint256"
        },
        {
          "internalType": "uint256",
          "name": "timeoutSeconds",
          "type": "uint256"
        },
        {
          "internalType": "uint256",
          "name": "maxRetries",
          "type": "uint256"
        }
      ],
      "name": "buyInsurance",
      "outputs": [],
      "stateMutability": "nonpayable",
      "type": "function"
    },
    {
      "inputs": [
        {
          "internalType": "uint256",
          "name": "policyId",
          "type": "uint256"
        }
      ],
      "name": "claimPayout",
      "outputs": [],
      "stateMutability": "nonpayable",
      "type": "function"
    },
    {
      "inputs": [
        {
          "internalType": "uint256",
          "name": "amount",
          "type": "uint256"
        }
      ],
      "name": "depositReserve",
      "outputs": [],
      "stateMutability": "nonpayable",
      "type": "function"
    },
    {
      "inputs": [
        {
          "internalType": "uint256",
          "name": "policyId",
          "type": "uint256"
        }
      ],
      "name": "getPolicy",
      "outputs": [
        {
          "components": [
            {
              "internalType": "address",
              "name": "buyer",
              "type": "address"
            },
            {
              "internalType": "address",
              "name": "seller",
              "type": "address"
            },
            {
              "internalType": "uint256",
              "name": "amount",
              "type": "uint256"
            },
            {
              "internalType": "uint256",
              "name": "premium",
              "type": "uint256"
            },
            {
              "internalType": "uint256",
              "name": "retryDeadline",
              "type": "uint256"
            },
            {
              "internalType": "uint256",
              "name": "maxRetries",
              "type": "uint256"
            },
            {
              "internalType": "bool",
              "name": "isActive",
              "type": "bool"
            },
            {
              "internalType": "bool",
              "name": "isPaidOut",
              "type": "bool"
            },
            {
              "internalType": "bool",
              "name": "isExpired",
              "type": "bool"
            }
          ],
          "internalType": "struct ZeusInsurance.Policy",
          "name": "",
          "type": "tuple"
        }
      ],
      "stateMutability": "view",
      "type": "function"
    },
    {
      "inputs": [],
      "name": "getReserveBalance",
      "outputs": [
        {
          "internalType": "uint256",
          "name": "",
          "type": "uint256"
        }
      ],
      "stateMutability": "view",
      "type": "function"
    },
    {
      "inputs": [],
      "name": "nextPolicyId",
      "outputs": [
        {
          "internalType": "uint256",
          "name": "",
          "type": "uint256"
        }
      ],
      "stateMutability": "view",
      "type": "function"
    },
    {
      "inputs": [],
      "name": "owner",
      "outputs": [
        {
          "internalType": "address",
          "name": "",
          "type": "address"
        }
      ],
      "stateMutability": "view",
      "type": "function"
    },
    {
      "inputs": [
        {
          "internalType": "uint256",
          "name": "",
          "type": "uint256"
        }
      ],
      "name": "policies",
      "outputs": [
        {
          "internalType": "address",
          "name": "buyer",
          "type": "address"
        },
        {
          "internalType": "address",
          "name": "seller",
          "type": "address"
        },
        {
          "internalType": "uint256",
          "name": "amount",
          "type": "uint256"
        },
        {
          "internalType": "uint256",
          "name": "premium",
          "type": "uint256"
        },
        {
          "internalType": "uint256",
          "name": "retryDeadline",
          "type": "uint256"
        },
        {
          "internalType": "uint256",
          "name": "maxRetries",
          "type": "uint256"
        },
        {
          "internalType": "bool",
          "name": "isActive",
          "type": "bool"
        },
        {
          "internalType": "bool",
          "name": "isPaidOut",
          "type": "bool"
        },
        {
          "internalType": "bool",
          "name": "isExpired",
          "type": "bool"
        }
      ],
      "stateMutability": "view",
      "type": "function"
    },
    {
      "inputs": [],
      "name": "renounceOwnership",
      "outputs": [],
      "stateMutability": "nonpayable",
      "type": "function"
    },
    {
      "inputs": [],
      "name": "reserveBalance",
      "outputs": [
        {
          "internalType": "uint256",
          "name": "",
          "type": "uint256"
        }
      ],
      "stateMutability": "view",
      "type": "function"
    },
    {
      "inputs": [
        {
          "internalType": "address",
          "name": "newOwner",
          "type": "address"
        }
      ],
      "name": "transferOwnership",
      "outputs": [],
      "stateMutability": "nonpayable",
      "type": "function"
    },
    {
      "inputs": [],
      "name": "usdc",
      "outputs": [
        {
          "internalType": "contract IERC20",
          "name": "",
          "type": "address"
        }
      ],
      "stateMutability": "view",
      "type": "function"
    },
    {
      "inputs": [
        {
          "internalType": "uint256",
          "name": "amount",
          "type": "uint256"
        }
      ],
      "name": "withdrawReserve",
      "outputs": [],
      "stateMutability": "nonpayable",
      "type": "function"
    }
  ],
  "bytecode": "0x60806040523480156200001157600080fd5b506040516200228a3803806200228a833981810160405281019062000037919062000293565b3360016200005a6200004e6200013060201b60201c565b6200015b60201b60201c565b60000181905550600073ffffffffffffffffffffffffffffffffffffffff168173ffffffffffffffffffffffffffffffffffffffff1603620000d65760006040517f1e4fbdf7000000000000000000000000000000000000000000000000000000008152600401620000cd9190620002d6565b60405180910390fd5b620000e7816200016560201b60201c565b5080600160006101000a81548173ffffffffffffffffffffffffffffffffffffffff021916908373ffffffffffffffffffffffffffffffffffffffff16021790555050620002f3565b60007f9b779b17422d0df92223018b32b4d1fa46e071723d6817e2486d003becc55f0060001b905090565b6000819050919050565b60008060009054906101000a900473ffffffffffffffffffffffffffffffffffffffff169050816000806101000a81548173ffffffffffffffffffffffffffffffffffffffff021916908373ffffffffffffffffffffffffffffffffffffffff1602179055508173ffffffffffffffffffffffffffffffffffffffff168173ffffffffffffffffffffffffffffffffffffffff167f8be0079c531659141344cd1fd0a4f28419497f9722a3daafe3b4186f6b6457e060405160405180910390a35050565b600080fd5b600073ffffffffffffffffffffffffffffffffffffffff82169050919050565b60006200025b826200022e565b9050919050565b6200026d816200024e565b81146200027957600080fd5b50565b6000815190506200028d8162000262565b92915050565b600060208284031215620002ac57620002ab62000229565b5b6000620002bc848285016200027c565b91505092915050565b620002d0816200024e565b82525050565b6000602082019050620002ed6000830184620002c5565b92915050565b611f8780620003036000396000f3fe608060405234801561001057600080fd5b50600436106100cf5760003560e01c80638da5cb5b1161008c578063cb765c1d11610066578063cb765c1d146101da578063d3e89483146101f8578063f2fde38b14610230578063f42d48a11461024c576100cf565b80638da5cb5b14610180578063a10954fe1461019e578063cad0b8db146101bc576100cf565b80632b07fce3146100d45780633d600db1146101045780633e413bee146101205780633e696f381461013e578063715018a61461015a5780638a69614e14610164575b600080fd5b6100ee60048036038101906100e99190611352565b610268565b6040516100fb91906114a1565b60405180910390f35b61011e600480360381019061011991906114e9565b6103bb565b005b61012861089d565b60405161013591906115af565b60405180910390f35b61015860048036038101906101539190611352565b6108c3565b005b610162610a0b565b005b61017e60048036038101906101799190611352565b610a1f565b005b610188610df5565b60405161019591906115d9565b60405180910390f35b6101a6610e1e565b6040516101b39190611603565b60405180910390f35b6101c4610e24565b6040516101d19190611603565b60405180910390f35b6101e2610e2a565b6040516101ef9190611603565b60405180910390f35b610212600480360381019061020d9190611352565b610e34565b6040516102279998979695949392919061162d565b60405180910390f35b61024a600480360381019061024591906116ba565b610ee9565b005b61026660048036038101906102619190611352565b610f6f565b005b610270611299565b60026000838152602001908152602001600020604051806101200160405290816000820160009054906101000a900473ffffffffffffffffffffffffffffffffffffffff1673ffffffffffffffffffffffffffffffffffffffff1673ffffffffffffffffffffffffffffffffffffffff1681526020016001820160009054906101000a900473ffffffffffffffffffffffffffffffffffffffff1673ffffffffffffffffffffffffffffffffffffffff1673ffffffffffffffffffffffffffffffffffffffff168152602001600282015481526020016003820154815260200160048201548152602001600582015481526020016006820160009054906101000a900460ff161515151581526020016006820160019054906101000a900460ff161515151581526020016006820160029054906101000a900460ff1615151515815250509050919050565b6103c3611074565b600073ffffffffffffffffffffffffffffffffffffffff168473ffffffffffffffffffffffffffffffffffffffff1603610432576040517f08c379a000000000000000000000000000000000000000000000000000000000815260040161042990611744565b60405180910390fd5b60008311610475576040517f08c379a000000000000000000000000000000000000000000000000000000000815260040161046c906117b0565b60405180910390fd5b6000811180156104865750600a8111155b6104c5576040517f08c379a00000000000000000000000000000000000000000000000000000000081526004016104bc9061181c565b60405180910390fd5b60008211610508576040517f08c379a00000000000000000000000000000000000000000000000000000000081526004016104ff90611888565b60405180910390fd5b600060c860018361051991906118d7565b610523919061190b565b6102bc610530919061194d565b905060006127108286610543919061190b565b61054d91906119b0565b9050600160009054906101000a900473ffffffffffffffffffffffffffffffffffffffff1673ffffffffffffffffffffffffffffffffffffffff166323b872dd3330846040518463ffffffff1660e01b81526004016105ae939291906119e1565b6020604051808303816000875af11580156105cd573d6000803e3d6000fd5b505050506040513d601f19601f820116820180604052508101906105f19190611a44565b610630576040517f08c379a000000000000000000000000000000000000000000000000000000000815260040161062790611abd565b60405180910390fd5b6000838561063e919061190b565b42610649919061194d565b90506040518061012001604052803373ffffffffffffffffffffffffffffffffffffffff1681526020018873ffffffffffffffffffffffffffffffffffffffff1681526020018781526020018381526020018281526020018581526020016001151581526020016000151581526020016000151581525060026000600354815260200190815260200160002060008201518160000160006101000a81548173ffffffffffffffffffffffffffffffffffffffff021916908373ffffffffffffffffffffffffffffffffffffffff16021790555060208201518160010160006101000a81548173ffffffffffffffffffffffffffffffffffffffff021916908373ffffffffffffffffffffffffffffffffffffffff16021790555060408201518160020155606082015181600301556080820151816004015560a0820151816005015560c08201518160060160006101000a81548160ff02191690831515021790555060e08201518160060160016101000a81548160ff0219169083151502179055506101008201518160060160026101000a81548160ff0219169083151502179055509050508160046000828254610801919061194d565b925050819055508673ffffffffffffffffffffffffffffffffffffffff163373ffffffffffffffffffffffffffffffffffffffff166003547ff2f1ab60cbf5c22b2e00364c1afa27ecea3174f4f6496a8a50e7cb8121a661ad89868660405161086c93929190611add565b60405180910390a46003600081548092919061088790611b14565b9190505550505050610897611097565b50505050565b600160009054906101000a900473ffffffffffffffffffffffffffffffffffffffff1681565b6108cb6110b2565b806004541015610910576040517f08c379a000000000000000000000000000000000000000000000000000000000815260040161090790611ba8565b60405180910390fd5b806004600082825461092291906118d7565b92505081905550600160009054906101000a900473ffffffffffffffffffffffffffffffffffffffff1673ffffffffffffffffffffffffffffffffffffffff1663a9059cbb33836040518363ffffffff1660e01b8152600401610986929190611bc8565b6020604051808303816000875af11580156109a5573d6000803e3d6000fd5b505050506040513d601f19601f820116820180604052508101906109c99190611a44565b610a08576040517f08c379a00000000000000000000000000000000000000000000000000000000081526004016109ff90611c3d565b60405180910390fd5b50565b610a136110b2565b610a1d6000611139565b565b610a27611074565b60006002600083815260200190815260200160002090503373ffffffffffffffffffffffffffffffffffffffff168160000160009054906101000a900473ffffffffffffffffffffffffffffffffffffffff1673ffffffffffffffffffffffffffffffffffffffff1614610ad0576040517f08c379a0000000000000000000000000000000000000000000000000000000008152600401610ac790611ca9565b60405180910390fd5b8060060160009054906101000a900460ff16610b21576040517f08c379a0000000000000000000000000000000000000000000000000000000008152600401610b1890611d15565b60405180910390fd5b8060060160019054906101000a900460ff1615610b73576040517f08c379a0000000000000000000000000000000000000000000000000000000008152600401610b6a90611d81565b60405180910390fd5b8060060160029054906101000a900460ff1615610bc5576040517f08c379a0000000000000000000000000000000000000000000000000000000008152600401610bbc90611ded565b60405180910390fd5b8060040154421015610c0c576040517f08c379a0000000000000000000000000000000000000000000000000000000008152600401610c0390611e59565b60405180910390fd5b600081600201549050806004541015610c5a576040517f08c379a0000000000000000000000000000000000000000000000000000000008152600401610c5190611ba8565b60405180910390fd5b60018260060160016101000a81548160ff02191690831515021790555060008260060160006101000a81548160ff0219169083151502179055508060046000828254610ca691906118d7565b92505081905550600160009054906101000a900473ffffffffffffffffffffffffffffffffffffffff1673ffffffffffffffffffffffffffffffffffffffff1663a9059cbb8360000160009054906101000a900473ffffffffffffffffffffffffffffffffffffffff16836040518363ffffffff1660e01b8152600401610d2e929190611bc8565b6020604051808303816000875af1158015610d4d573d6000803e3d6000fd5b505050506040513d601f19601f82011682018060405250810190610d719190611a44565b610db0576040517f08c379a0000000000000000000000000000000000000000000000000000000008152600401610da790611ec5565b60405180910390fd5b827f83d00233f6accba2fd7dc7b1a4c09e168bb7fafadc5aeb2cdfa4a6a85d85eafe82604051610de09190611603565b60405180910390a25050610df2611097565b50565b60008060009054906101000a900473ffffffffffffffffffffffffffffffffffffffff16905090565b60045481565b60035481565b6000600454905090565b60026020528060005260406000206000915090508060000160009054906101000a900473ffffffffffffffffffffffffffffffffffffffff16908060010160009054906101000a900473ffffffffffffffffffffffffffffffffffffffff16908060020154908060030154908060040154908060050154908060060160009054906101000a900460ff16908060060160019054906101000a900460ff16908060060160029054906101000a900460ff16905089565b610ef16110b2565b600073ffffffffffffffffffffffffffffffffffffffff168173ffffffffffffffffffffffffffffffffffffffff1603610f635760006040517f1e4fbdf7000000000000000000000000000000000000000000000000000000008152600401610f5a91906115d9565b60405180910390fd5b610f6c81611139565b50565b610f776110b2565b600160009054906101000a900473ffffffffffffffffffffffffffffffffffffffff1673ffffffffffffffffffffffffffffffffffffffff166323b872dd3330846040518463ffffffff1660e01b8152600401610fd6939291906119e1565b6020604051808303816000875af1158015610ff5573d6000803e3d6000fd5b505050506040513d601f19601f820116820180604052508101906110199190611a44565b611058576040517f08c379a000000000000000000000000000000000000000000000000000000000815260040161104f90611f31565b60405180910390fd5b806004600082825461106a919061194d565b9250508190555050565b61107c6111fd565b600261108e61108961123e565b611269565b60000181905550565b60016110a96110a461123e565b611269565b60000181905550565b6110ba611273565b73ffffffffffffffffffffffffffffffffffffffff166110d8610df5565b73ffffffffffffffffffffffffffffffffffffffff1614611137576110fb611273565b6040517f118cdaa700000000000000000000000000000000000000000000000000000000815260040161112e91906115d9565b60405180910390fd5b565b60008060009054906101000a900473ffffffffffffffffffffffffffffffffffffffff169050816000806101000a81548173ffffffffffffffffffffffffffffffffffffffff021916908373ffffffffffffffffffffffffffffffffffffffff1602179055508173ffffffffffffffffffffffffffffffffffffffff168173ffffffffffffffffffffffffffffffffffffffff167f8be0079c531659141344cd1fd0a4f28419497f9722a3daafe3b4186f6b6457e060405160405180910390a35050565b61120561127b565b1561123c576040517f3ee5aeb500000000000000000000000000000000000000000000000000000000815260040160405180910390fd5b565b60007f9b779b17422d0df92223018b32b4d1fa46e071723d6817e2486d003becc55f0060001b905090565b6000819050919050565b600033905090565b6000600261128f61128a61123e565b611269565b6000015414905090565b604051806101200160405280600073ffffffffffffffffffffffffffffffffffffffff168152602001600073ffffffffffffffffffffffffffffffffffffffff168152602001600081526020016000815260200160008152602001600081526020016000151581526020016000151581526020016000151581525090565b600080fd5b6000819050919050565b61132f8161131c565b811461133a57600080fd5b50565b60008135905061134c81611326565b92915050565b60006020828403121561136857611367611317565b5b60006113768482850161133d565b91505092915050565b600073ffffffffffffffffffffffffffffffffffffffff82169050919050565b60006113aa8261137f565b9050919050565b6113ba8161139f565b82525050565b6113c98161131c565b82525050565b60008115159050919050565b6113e4816113cf565b82525050565b6101208201600082015161140160008501826113b1565b50602082015161141460208501826113b1565b50604082015161142760408501826113c0565b50606082015161143a60608501826113c0565b50608082015161144d60808501826113c0565b5060a082015161146060a08501826113c0565b5060c082015161147360c08501826113db565b5060e082015161148660e08501826113db565b5061010082015161149b6101008501826113db565b50505050565b6000610120820190506114b760008301846113ea565b92915050565b6114c68161139f565b81146114d157600080fd5b50565b6000813590506114e3816114bd565b92915050565b6000806000806080858703121561150357611502611317565b5b6000611511878288016114d4565b94505060206115228782880161133d565b93505060406115338782880161133d565b92505060606115448782880161133d565b91505092959194509250565b6000819050919050565b600061157561157061156b8461137f565b611550565b61137f565b9050919050565b60006115878261155a565b9050919050565b60006115998261157c565b9050919050565b6115a98161158e565b82525050565b60006020820190506115c460008301846115a0565b92915050565b6115d38161139f565b82525050565b60006020820190506115ee60008301846115ca565b92915050565b6115fd8161131c565b82525050565b600060208201905061161860008301846115f4565b92915050565b611627816113cf565b82525050565b600061012082019050611643600083018c6115ca565b611650602083018b6115ca565b61165d604083018a6115f4565b61166a60608301896115f4565b61167760808301886115f4565b61168460a08301876115f4565b61169160c083018661161e565b61169e60e083018561161e565b6116ac61010083018461161e565b9a9950505050505050505050565b6000602082840312156116d0576116cf611317565b5b60006116de848285016114d4565b91505092915050565b600082825260208201905092915050565b7f496e76616c69642073656c6c6572000000000000000000000000000000000000600082015250565b600061172e600e836116e7565b9150611739826116f8565b602082019050919050565b6000602082019050818103600083015261175d81611721565b9050919050565b7f416d6f756e74206d757374206265203e20300000000000000000000000000000600082015250565b600061179a6012836116e7565b91506117a582611764565b602082019050919050565b600060208201905081810360008301526117c98161178d565b9050919050565b7f496e76616c696420726574726965730000000000000000000000000000000000600082015250565b6000611806600f836116e7565b9150611811826117d0565b602082019050919050565b60006020820190508181036000830152611835816117f9565b9050919050565b7f54696d656f7574206d757374206265203e203000000000000000000000000000600082015250565b60006118726013836116e7565b915061187d8261183c565b602082019050919050565b600060208201905081810360008301526118a181611865565b9050919050565b7f4e487b7100000000000000000000000000000000000000000000000000000000600052601160045260246000fd5b60006118e28261131c565b91506118ed8361131c565b9250828203905081811115611905576119046118a8565b5b92915050565b60006119168261131c565b91506119218361131c565b925082820261192f8161131c565b91508282048414831517611946576119456118a8565b5b5092915050565b60006119588261131c565b91506119638361131c565b925082820190508082111561197b5761197a6118a8565b5b92915050565b7f4e487b7100000000000000000000000000000000000000000000000000000000600052601260045260246000fd5b60006119bb8261131c565b91506119c68361131c565b9250826119d6576119d5611981565b5b828204905092915050565b60006060820190506119f660008301866115ca565b611a0360208301856115ca565b611a1060408301846115f4565b949350505050565b611a21816113cf565b8114611a2c57600080fd5b50565b600081519050611a3e81611a18565b92915050565b600060208284031215611a5a57611a59611317565b5b6000611a6884828501611a2f565b91505092915050565b7f5072656d69756d207472616e73666572206661696c6564000000000000000000600082015250565b6000611aa76017836116e7565b9150611ab282611a71565b602082019050919050565b60006020820190508181036000830152611ad681611a9a565b9050919050565b6000606082019050611af260008301866115f4565b611aff60208301856115f4565b611b0c60408301846115f4565b949350505050565b6000611b1f8261131c565b91507fffffffffffffffffffffffffffffffffffffffffffffffffffffffffffffffff8203611b5157611b506118a8565b5b600182019050919050565b7f496e73756666696369656e742072657365727665000000000000000000000000600082015250565b6000611b926014836116e7565b9150611b9d82611b5c565b602082019050919050565b60006020820190508181036000830152611bc181611b85565b9050919050565b6000604082019050611bdd60008301856115ca565b611bea60208301846115f4565b9392505050565b7f5769746864726177206661696c65640000000000000000000000000000000000600082015250565b6000611c27600f836116e7565b9150611c3282611bf1565b602082019050919050565b60006020820190508181036000830152611c5681611c1a565b9050919050565b7f4f6e6c792062757965722063616e20636c61696d000000000000000000000000600082015250565b6000611c936014836116e7565b9150611c9e82611c5d565b602082019050919050565b60006020820190508181036000830152611cc281611c86565b9050919050565b7f506f6c696379206e6f7420616374697665000000000000000000000000000000600082015250565b6000611cff6011836116e7565b9150611d0a82611cc9565b602082019050919050565b60006020820190508181036000830152611d2e81611cf2565b9050919050565b7f416c72656164792070616964206f757400000000000000000000000000000000600082015250565b6000611d6b6010836116e7565b9150611d7682611d35565b602082019050919050565b60006020820190508181036000830152611d9a81611d5e565b9050919050565b7f506f6c6963792065787069726564000000000000000000000000000000000000600082015250565b6000611dd7600e836116e7565b9150611de282611da1565b602082019050919050565b60006020820190508181036000830152611e0681611dca565b9050919050565b7f54696d656f7574206e6f74207965742072656163686564000000000000000000600082015250565b6000611e436017836116e7565b9150611e4e82611e0d565b602082019050919050565b60006020820190508181036000830152611e7281611e36565b9050919050565b7f5061796f7574207472616e73666572206661696c656400000000000000000000600082015250565b6000611eaf6016836116e7565b9150611eba82611e79565b602082019050919050565b60006020820190508181036000830152611ede81611ea2565b9050919050565b7f4465706f736974206661696c6564000000000000000000000000000000000000600082015250565b6000611f1b600e836116e7565b9150611f2682611ee5565b602082019050919050565b60006020820190508181036000830152611f4a81611f0e565b905091905056fea264697066735822122091d554d0a7e594e69638b4dfe61b6068f38d29c875e543da4037f13f17ad7f8664736f6c63430008180033",
  "linkReferences": {},
  "deployedLinkReferences": {}
}