{
  "_format": "hh-sol-artifact-1",
  "contractName": "MyToken",
  "sourceName": "contracts/MyToken.sol",
  "abi": [
    {
      "inputs": [
        {
          "internalType": "string",
          "name": "name",
          "type": "string"
        },
        {
          "internalType": "string",
          "name": "symbol",
          "type": "string"
        },
        {
          "internalType": "uint256",
          "name": "initialSupply",
          "type": "uint256"
        }
      ],
      "stateMutability": "nonpayable",
      "type": "constructor"
    },
    {
      "inputs": [
        {
          "internalType": "address",
          "name": "spender",
          "type": "address"
        },
        {
          "internalType": "uint256",
          "name": "allowance",
          "type": "uint256"
        },
        {
          "internalType": "uint256",
          "name": "needed",
          "type": "uint256"
        }
      ],
      "name": "ERC20InsufficientAllowance",
      "type": "error"
    },
    {
      "inputs": [
        {
          "internalType": "address",
          "name": "sender",
          "type": "address"
        },
        {
          "internalType": "uint256",
          "name": "balance",
          "type": "uint256"
        },
        {
          "internalType": "uint256",
          "name": "needed",
          "type": "uint256"
        }
      ],
      "name": "ERC20InsufficientBalance",
      "type": "error"
    },
    {
      "inputs": [
        {
          "internalType": "address",
          "name": "approver",
          "type": "address"
        }
      ],
      "name": "ERC20InvalidApprover",
      "type": "error"
    },
    {
      "inputs": [
        {
          "internalType": "address",
          "name": "receiver",
          "type": "address"
        }
      ],
      "name": "ERC20InvalidReceiver",
      "type": "error"
    },
    {
      "inputs": [
        {
          "internalType": "address",
          "name": "sender",
          "type": "address"
        }
      ],
      "name": "ERC20InvalidSender",
      "type": "error"
    },
    {
      "inputs": [
        {
          "internalType": "address",
          "name": "spender",
          "type": "address"
        }
      ],
      "name": "ERC20InvalidSpender",
      "type": "error"
    },
    {
      "inputs": [
        {
          "internalType": "address",
          "name": "owner",
          "type": "address"
        }
      ],
      "name": "OwnableInvalidOwner",
      "type": "error"
    },
    {
      "inputs": [
        {
          "internalType": "address",
          "name": "account",
          "type": "address"
        }
      ],
      "name": "OwnableUnauthorizedAccount",
      "type": "error"
    },
    {
      "anonymous": false,
      "inputs": [
        {
          "indexed": true,
          "internalType": "address",
          "name": "owner",
          "type": "address"
        },
        {
          "indexed": true,
          "internalType": "address",
          "name": "spender",
          "type": "address"
        },
        {
          "indexed": false,
          "internalType": "uint256",
          "name": "value",
          "type": "uint256"
        }
      ],
      "name": "Approval",
      "type": "event"
    },
    {
      "anonymous": false,
      "inputs": [
        {
          "indexed": true,
          "internalType": "address",
          "name": "previousOwner",
          "type": "address"
        },
        {
          "indexed": true,
          "internalType": "address",
          "name": "newOwner",
          "type": "address"
        }
      ],
      "name": "OwnershipTransferred",
      "type": "event"
    },
    {
      "anonymous": false,
      "inputs": [
        {
          "indexed": true,
          "internalType": "address",
          "name": "to",
          "type": "address"
        },
        {
          "indexed": false,
          "internalType": "uint256",
          "name": "amount",
          "type": "uint256"
        }
      ],
      "name": "TokensMinted",
      "type": "event"
    },
    {
      "anonymous": false,
      "inputs": [
        {
          "indexed": true,
          "internalType": "address",
          "name": "from",
          "type": "address"
        },
        {
          "indexed": true,
          "internalType": "address",
          "name": "to",
          "type": "address"
        },
        {
          "indexed": false,
          "internalType": "uint256",
          "name": "value",
          "type": "uint256"
        }
      ],
      "name": "Transfer",
      "type": "event"
    },
    {
      "inputs": [],
      "name": "MAX_SUPPLY",
      "outputs": [
        {
          "internalType": "uint256",
          "name": "",
          "type": "uint256"
        }
      ],
      "stateMutability": "view",
      "type": "function"
    },
    {
      "inputs": [
        {
          "internalType": "address",
          "name": "owner",
          "type": "address"
        },
        {
          "internalType": "address",
          "name": "spender",
          "type": "address"
        }
      ],
      "name": "allowance",
      "outputs": [
        {
          "internalType": "uint256",
          "name": "",
          "type": "uint256"
        }
      ],
      "stateMutability": "view",
      "type": "function"
    },
    {
      "inputs": [
        {
          "internalType": "address",
          "name": "spender",
          "type": "address"
        },
        {
          "internalType": "uint256",
          "name": "value",
          "type": "uint256"
        }
      ],
      "name": "approve",
      "outputs": [
        {
          "internalType": "bool",
          "name": "",
          "type": "bool"
        }
      ],
      "stateMutability": "nonpayable",
      "type": "function"
    },
    {
      "inputs": [
        {
          "internalType": "address",
          "name": "account",
          "type": "address"
        }
      ],
      "name": "balanceOf",
      "outputs": [
        {
          "internalType": "uint256",
          "name": "",
          "type": "uint256"
        }
      ],
      "stateMutability": "view",
      "type": "function"
    },
    {
      "inputs": [
        {
          "internalType": "uint256",
          "name": "value",
          "type": "uint256"
        }
      ],
      "name": "burn",
      "outputs": [],
      "stateMutability": "nonpayable",
      "type": "function"
    },
    {
      "inputs": [
        {
          "internalType": "address",
          "name": "account",
          "type": "address"
        },
        {
          "internalType": "uint256",
          "name": "value",
          "type": "uint256"
        }
      ],
      "name": "burnFrom",
      "outputs": [],
      "stateMutability": "nonpayable",
      "type": "function"
    },
    {
      "inputs": [],
      "name": "decimals",
      "outputs": [
        {
          "internalType": "uint8",
          "name": "",
          "type": "uint8"
        }
      ],
      "stateMutability": "view",
      "type": "function"
    },
    {
      "inputs": [
        {
          "internalType": "address",
          "name": "to",
          "type": "address"
        },
        {
          "internalType": "uint256",
          "name": "amount",
          "type": "uint256"
        }
      ],
      "name": "mint",
      "outputs": [],
      "stateMutability": "nonpayable",
      "type": "function"
    },
    {
      "inputs": [],
      "name": "name",
      "outputs": [
        {
          "internalType": "string",
          "name": "",
          "type": "string"
        }
      ],
      "stateMutability": "view",
      "type": "function"
    },
    {
      "inputs": [],
      "name": "owner",
      "outputs": [
        {
          "internalType": "address",
          "name": "",
          "type": "address"
        }
      ],
      "stateMutability": "view",
      "type": "function"
    },
    {
      "inputs": [],
      "name": "renounceOwnership",
      "outputs": [],
      "stateMutability": "nonpayable",
      "type": "function"
    },
    {
      "inputs": [],
      "name": "symbol",
      "outputs": [
        {
          "internalType": "string",
          "name": "",
          "type": "string"
        }
      ],
      "stateMutability": "view",
      "type": "function"
    },
    {
      "inputs": [],
      "name": "totalSupply",
      "outputs": [
        {
          "internalType": "uint256",
          "name": "",
          "type": "uint256"
        }
      ],
      "stateMutability": "view",
      "type": "function"
    },
    {
      "inputs": [
        {
          "internalType": "address",
          "name": "to",
          "type": "address"
        },
        {
          "internalType": "uint256",
          "name": "value",
          "type": "uint256"
        }
      ],
      "name": "transfer",
      "outputs": [
        {
          "internalType": "bool",
          "name": "",
          "type": "bool"
        }
      ],
      "stateMutability": "nonpayable",
      "type": "function"
    },
    {
      "inputs": [
        {
          "internalType": "address",
          "name": "from",
          "type": "address"
        },
        {
          "internalType": "address",
          "name": "to",
          "type": "address"
        },
        {
          "internalType": "uint256",
          "name": "value",
          "type": "uint256"
        }
      ],
      "name": "transferFrom",
      "outputs": [
        {
          "internalType": "bool",
          "name": "",
          "type": "bool"
        }
      ],
      "stateMutability": "nonpayable",
      "type": "function"
    },
    {
      "inputs": [
        {
          "internalType": "address",
          "name": "newOwner",
          "type": "address"
        }
      ],
      "name": "transferOwnership",
      "outputs": [],
      "stateMutability": "nonpayable",
      "type": "function"
    }
  ],
  "bytecode": "0x60806040523480156200001157600080fd5b506040516200208c3803806200208c8339818101604052810190620000379190620006ae565b33838381600390816200004b919062000989565b5080600490816200005d919062000989565b505050600073ffffffffffffffffffffffffffffffffffffffff168173ffffffffffffffffffffffffffffffffffffffff1603620000d55760006040517f1e4fbdf7000000000000000000000000000000000000000000000000000000008152600401620000cc919062000ab5565b60405180910390fd5b620000e6816200015d60201b60201c565b5069d3c21bcecceda100000081111562000137576040517f08c379a00000000000000000000000000000000000000000000000000000000081526004016200012e9062000b59565b60405180910390fd5b600081111562000154576200015333826200022360201b60201c565b5b50505062000c50565b6000600560009054906101000a900473ffffffffffffffffffffffffffffffffffffffff16905081600560006101000a81548173ffffffffffffffffffffffffffffffffffffffff021916908373ffffffffffffffffffffffffffffffffffffffff1602179055508173ffffffffffffffffffffffffffffffffffffffff168173ffffffffffffffffffffffffffffffffffffffff167f8be0079c531659141344cd1fd0a4f28419497f9722a3daafe3b4186f6b6457e060405160405180910390a35050565b600073ffffffffffffffffffffffffffffffffffffffff168273ffffffffffffffffffffffffffffffffffffffff1603620002985760006040517fec442f050000000000000000000000000000000000000000000000000000000081526004016200028f919062000ab5565b60405180910390fd5b620002ac60008383620002b060201b60201c565b5050565b600073ffffffffffffffffffffffffffffffffffffffff168373ffffffffffffffffffffffffffffffffffffffff160362000306578060026000828254620002f9919062000baa565b92505081905550620003dc565b60008060008573ffffffffffffffffffffffffffffffffffffffff1673ffffffffffffffffffffffffffffffffffffffff1681526020019081526020016000205490508181101562000395578381836040517fe450d38c0000000000000000000000000000000000000000000000000000000081526004016200038c9392919062000bf6565b60405180910390fd5b8181036000808673ffffffffffffffffffffffffffffffffffffffff1673ffffffffffffffffffffffffffffffffffffffff16815260200190815260200160002081905550505b600073ffffffffffffffffffffffffffffffffffffffff168273ffffffffffffffffffffffffffffffffffffffff160362000427578060026000828254039250508190555062000474565b806000808473ffffffffffffffffffffffffffffffffffffffff1673ffffffffffffffffffffffffffffffffffffffff168152602001908152602001600020600082825401925050819055505b8173ffffffffffffffffffffffffffffffffffffffff168373ffffffffffffffffffffffffffffffffffffffff167fddf252ad1be2c89b69c2b068fc378daa952ba7f163c4a11628f55a4df523b3ef83604051620004d3919062000c33565b60405180910390a3505050565b6000604051905090565b600080fd5b600080fd5b600080fd5b600080fd5b6000601f19601f8301169050919050565b7f4e487b7100000000000000000000000000000000000000000000000000000000600052604160045260246000fd5b6200054982620004fe565b810181811067ffffffffffffffff821117156200056b576200056a6200050f565b5b80604052505050565b600062000580620004e0565b90506200058e82826200053e565b919050565b600067ffffffffffffffff821115620005b157620005b06200050f565b5b620005bc82620004fe565b9050602081019050919050565b60005b83811015620005e9578082015181840152602081019050620005cc565b60008484015250505050565b60006200060c620006068462000593565b62000574565b9050828152602081018484840111156200062b576200062a620004f9565b5b62000638848285620005c9565b509392505050565b600082601f830112620006585762000657620004f4565b5b81516200066a848260208601620005f5565b91505092915050565b6000819050919050565b620006888162000673565b81146200069457600080fd5b50565b600081519050620006a8816200067d565b92915050565b600080600060608486031215620006ca57620006c9620004ea565b5b600084015167ffffffffffffffff811115620006eb57620006ea620004ef565b5b620006f98682870162000640565b935050602084015167ffffffffffffffff8111156200071d576200071c620004ef565b5b6200072b8682870162000640565b92505060406200073e8682870162000697565b9150509250925092565b600081519050919050565b7f4e487b7100000000000000000000000000000000000000000000000000000000600052602260045260246000fd5b600060028204905060018216806200079b57607f821691505b602082108103620007b157620007b062000753565b5b50919050565b60008190508160005260206000209050919050565b60006020601f8301049050919050565b600082821b905092915050565b6000600883026200081b7fffffffffffffffffffffffffffffffffffffffffffffffffffffffffffffffff82620007dc565b620008278683620007dc565b95508019841693508086168417925050509392505050565b6000819050919050565b60006200086a620008646200085e8462000673565b6200083f565b62000673565b9050919050565b6000819050919050565b620008868362000849565b6200089e620008958262000871565b848454620007e9565b825550505050565b600090565b620008b5620008a6565b620008c28184846200087b565b505050565b5b81811015620008ea57620008de600082620008ab565b600181019050620008c8565b5050565b601f82111562000939576200090381620007b7565b6200090e84620007cc565b810160208510156200091e578190505b620009366200092d85620007cc565b830182620008c7565b50505b505050565b600082821c905092915050565b60006200095e600019846008026200093e565b1980831691505092915050565b60006200097983836200094b565b9150826002028217905092915050565b620009948262000748565b67ffffffffffffffff811115620009b057620009af6200050f565b5b620009bc825462000782565b620009c9828285620008ee565b600060209050601f83116001811462000a015760008415620009ec578287015190505b620009f885826200096b565b86555062000a68565b601f19841662000a1186620007b7565b60005b8281101562000a3b5784890151825560018201915060208501945060208101905062000a14565b8683101562000a5b578489015162000a57601f8916826200094b565b8355505b6001600288020188555050505b505050505050565b600073ffffffffffffffffffffffffffffffffffffffff82169050919050565b600062000a9d8262000a70565b9050919050565b62000aaf8162000a90565b82525050565b600060208201905062000acc600083018462000aa4565b92915050565b600082825260208201905092915050565b7f4d79546f6b656e3a20696e697469616c20737570706c7920657863656564732060008201527f6d617820737570706c7900000000000000000000000000000000000000000000602082015250565b600062000b41602a8362000ad2565b915062000b4e8262000ae3565b604082019050919050565b6000602082019050818103600083015262000b748162000b32565b9050919050565b7f4e487b7100000000000000000000000000000000000000000000000000000000600052601160045260246000fd5b600062000bb78262000673565b915062000bc48362000673565b925082820190508082111562000bdf5762000bde62000b7b565b5b92915050565b62000bf08162000673565b82525050565b600060608201905062000c0d600083018662000aa4565b62000c1c602083018562000be5565b62000c2b604083018462000be5565b949350505050565b600060208201905062000c4a600083018462000be5565b92915050565b61142c8062000c606000396000f3fe608060405234801561001057600080fd5b50600436106101005760003560e01c806370a082311161009757806395d89b411161006657806395d89b4114610289578063a9059cbb146102a7578063dd62ed3e146102d7578063f2fde38b1461030757610100565b806370a0823114610215578063715018a61461024557806379cc67901461024f5780638da5cb5b1461026b57610100565b8063313ce567116100d3578063313ce567146101a157806332cb6b0c146101bf57806340c10f19146101dd57806342966c68146101f957610100565b806306fdde0314610105578063095ea7b31461012357806318160ddd1461015357806323b872dd14610171575b600080fd5b61010d610323565b60405161011a9190610fe7565b60405180910390f35b61013d600480360381019061013891906110a2565b6103b5565b60405161014a91906110fd565b60405180910390f35b61015b6103d8565b6040516101689190611127565b60405180910390f35b61018b60048036038101906101869190611142565b6103e2565b60405161019891906110fd565b60405180910390f35b6101a9610411565b6040516101b691906111b1565b60405180910390f35b6101c761041a565b6040516101d49190611127565b60405180910390f35b6101f760048036038101906101f291906110a2565b610428565b005b610213600480360381019061020e91906111cc565b6104eb565b005b61022f600480360381019061022a91906111f9565b6104ff565b60405161023c9190611127565b60405180910390f35b61024d610547565b005b610269600480360381019061026491906110a2565b61055b565b005b61027361057b565b6040516102809190611235565b60405180910390f35b6102916105a5565b60405161029e9190610fe7565b60405180910390f35b6102c160048036038101906102bc91906110a2565b610637565b6040516102ce91906110fd565b60405180910390f35b6102f160048036038101906102ec9190611250565b61065a565b6040516102fe9190611127565b60405180910390f35b610321600480360381019061031c91906111f9565b6106e1565b005b606060038054610332906112bf565b80601f016020809104026020016040519081016040528092919081815260200182805461035e906112bf565b80156103ab5780601f10610380576101008083540402835291602001916103ab565b820191906000526020600020905b81548152906001019060200180831161038e57829003601f168201915b5050505050905090565b6000806103c0610767565b90506103cd81858561076f565b600191505092915050565b6000600254905090565b6000806103ed610767565b90506103fa858285610781565b610405858585610816565b60019150509392505050565b60006012905090565b69d3c21bcecceda100000081565b61043061090a565b69d3c21bcecceda1000000816104446103d8565b61044e919061131f565b111561048f576040517f08c379a00000000000000000000000000000000000000000000000000000000081526004016104869061139f565b60405180910390fd5b6104998282610991565b8173ffffffffffffffffffffffffffffffffffffffff167f3f2c9d57c068687834f0de942a9babb9e5acab57d516d3480a3c16ee165a4273826040516104df9190611127565b60405180910390a25050565b6104fc6104f6610767565b82610a13565b50565b60008060008373ffffffffffffffffffffffffffffffffffffffff1673ffffffffffffffffffffffffffffffffffffffff168152602001908152602001600020549050919050565b61054f61090a565b6105596000610a95565b565b61056d82610567610767565b83610781565b6105778282610a13565b5050565b6000600560009054906101000a900473ffffffffffffffffffffffffffffffffffffffff16905090565b6060600480546105b4906112bf565b80601f01602080910402602001604051908101604052809291908181526020018280546105e0906112bf565b801561062d5780601f106106025761010080835404028352916020019161062d565b820191906000526020600020905b81548152906001019060200180831161061057829003601f168201915b5050505050905090565b600080610642610767565b905061064f818585610816565b600191505092915050565b6000600160008473ffffffffffffffffffffffffffffffffffffffff1673ffffffffffffffffffffffffffffffffffffffff16815260200190815260200160002060008373ffffffffffffffffffffffffffffffffffffffff1673ffffffffffffffffffffffffffffffffffffffff16815260200190815260200160002054905092915050565b6106e961090a565b600073ffffffffffffffffffffffffffffffffffffffff168173ffffffffffffffffffffffffffffffffffffffff160361075b5760006040517f1e4fbdf70000000000000000000000000000000000000000000000000000000081526004016107529190611235565b60405180910390fd5b61076481610a95565b50565b600033905090565b61077c8383836001610b5b565b505050565b600061078d848461065a565b90507fffffffffffffffffffffffffffffffffffffffffffffffffffffffffffffffff8110156108105781811015610800578281836040517ffb8f41b20000000000000000000000000000000000000000000000000000000081526004016107f7939291906113bf565b60405180910390fd5b61080f84848484036000610b5b565b5b50505050565b600073ffffffffffffffffffffffffffffffffffffffff168373ffffffffffffffffffffffffffffffffffffffff16036108885760006040517f96c6fd1e00000000000000000000000000000000000000000000000000000000815260040161087f9190611235565b60405180910390fd5b600073ffffffffffffffffffffffffffffffffffffffff168273ffffffffffffffffffffffffffffffffffffffff16036108fa5760006040517fec442f050000000000000000000000000000000000000000000000000000000081526004016108f19190611235565b60405180910390fd5b610905838383610d32565b505050565b610912610767565b73ffffffffffffffffffffffffffffffffffffffff1661093061057b565b73ffffffffffffffffffffffffffffffffffffffff161461098f57610953610767565b6040517f118cdaa70000000000000000000000000000000000000000000000000000000081526004016109869190611235565b60405180910390fd5b565b600073ffffffffffffffffffffffffffffffffffffffff168273ffffffffffffffffffffffffffffffffffffffff1603610a035760006040517fec442f050000000000000000000000000000000000000000000000000000000081526004016109fa9190611235565b60405180910390fd5b610a0f60008383610d32565b5050565b600073ffffffffffffffffffffffffffffffffffffffff168273ffffffffffffffffffffffffffffffffffffffff1603610a855760006040517f96c6fd1e000000000000000000000000000000000000000000000000000000008152600401610a7c9190611235565b60405180910390fd5b610a9182600083610d32565b5050565b6000600560009054906101000a900473ffffffffffffffffffffffffffffffffffffffff16905081600560006101000a81548173ffffffffffffffffffffffffffffffffffffffff021916908373ffffffffffffffffffffffffffffffffffffffff1602179055508173ffffffffffffffffffffffffffffffffffffffff168173ffffffffffffffffffffffffffffffffffffffff167f8be0079c531659141344cd1fd0a4f28419497f9722a3daafe3b4186f6b6457e060405160405180910390a35050565b600073ffffffffffffffffffffffffffffffffffffffff168473ffffffffffffffffffffffffffffffffffffffff1603610bcd5760006040517fe602df05000000000000000000000000000000000000000000000000000000008152600401610bc49190611235565b60405180910390fd5b600073ffffffffffffffffffffffffffffffffffffffff168373ffffffffffffffffffffffffffffffffffffffff1603610c3f5760006040517f94280d62000000000000000000000000000000000000000000000000000000008152600401610c369190611235565b60405180910390fd5b81600160008673ffffffffffffffffffffffffffffffffffffffff1673ffffffffffffffffffffffffffffffffffffffff16815260200190815260200160002060008573ffffffffffffffffffffffffffffffffffffffff1673ffffffffffffffffffffffffffffffffffffffff168152602001908152602001600020819055508015610d2c578273ffffffffffffffffffffffffffffffffffffffff168473ffffffffffffffffffffffffffffffffffffffff167f8c5be1e5ebec7d5bd14f71427d1e84f3dd0314c0f7b2291e5b200ac8c7c3b92584604051610d239190611127565b60405180910390a35b50505050565b600073ffffffffffffffffffffffffffffffffffffffff168373ffffffffffffffffffffffffffffffffffffffff1603610d84578060026000828254610d78919061131f565b92505081905550610e57565b60008060008573ffffffffffffffffffffffffffffffffffffffff1673ffffffffffffffffffffffffffffffffffffffff16815260200190815260200160002054905081811015610e10578381836040517fe450d38c000000000000000000000000000000000000000000000000000000008152600401610e07939291906113bf565b60405180910390fd5b8181036000808673ffffffffffffffffffffffffffffffffffffffff1673ffffffffffffffffffffffffffffffffffffffff16815260200190815260200160002081905550505b600073ffffffffffffffffffffffffffffffffffffffff168273ffffffffffffffffffffffffffffffffffffffff1603610ea05780600260008282540392505081905550610eed565b806000808473ffffffffffffffffffffffffffffffffffffffff1673ffffffffffffffffffffffffffffffffffffffff168152602001908152602001600020600082825401925050819055505b8173ffffffffffffffffffffffffffffffffffffffff168373ffffffffffffffffffffffffffffffffffffffff167fddf252ad1be2c89b69c2b068fc378daa952ba7f163c4a11628f55a4df523b3ef83604051610f4a9190611127565b60405180910390a3505050565b600081519050919050565b600082825260208201905092915050565b60005b83811015610f91578082015181840152602081019050610f76565b60008484015250505050565b6000601f19601f8301169050919050565b6000610fb982610f57565b610fc38185610f62565b9350610fd3818560208601610f73565b610fdc81610f9d565b840191505092915050565b600060208201905081810360008301526110018184610fae565b905092915050565b600080fd5b600073ffffffffffffffffffffffffffffffffffffffff82169050919050565b60006110398261100e565b9050919050565b6110498161102e565b811461105457600080fd5b50565b60008135905061106681611040565b92915050565b6000819050919050565b61107f8161106c565b811461108a57600080fd5b50565b60008135905061109c81611076565b92915050565b600080604083850312156110b9576110b8611009565b5b60006110c785828601611057565b92505060206110d88582860161108d565b9150509250929050565b60008115159050919050565b6110f7816110e2565b82525050565b600060208201905061111260008301846110ee565b92915050565b6111218161106c565b82525050565b600060208201905061113c6000830184611118565b92915050565b60008060006060848603121561115b5761115a611009565b5b600061116986828701611057565b935050602061117a86828701611057565b925050604061118b8682870161108d565b9150509250925092565b600060ff82169050919050565b6111ab81611195565b82525050565b60006020820190506111c660008301846111a2565b92915050565b6000602082840312156111e2576111e1611009565b5b60006111f08482850161108d565b91505092915050565b60006020828403121561120f5761120e611009565b5b600061121d84828501611057565b91505092915050565b61122f8161102e565b82525050565b600060208201905061124a6000830184611226565b92915050565b6000806040838503121561126757611266611009565b5b600061127585828601611057565b925050602061128685828601611057565b9150509250929050565b7f4e487b7100000000000000000000000000000000000000000000000000000000600052602260045260246000fd5b600060028204905060018216806112d757607f821691505b6020821081036112ea576112e9611290565b5b50919050565b7f4e487b7100000000000000000000000000000000000000000000000000000000600052601160045260246000fd5b600061132a8261106c565b91506113358361106c565b925082820190508082111561134d5761134c6112f0565b5b92915050565b7f4d79546f6b656e3a2065786365656473206d617820737570706c790000000000600082015250565b6000611389601b83610f62565b915061139482611353565b602082019050919050565b600060208201905081810360008301526113b88161137c565b9050919050565b60006060820190506113d46000830186611226565b6113e16020830185611118565b6113ee6040830184611118565b94935050505056fea2646970667358221220990fca3040cde7cd27514e1d5b576caf83d1509c8278414486cbc7cf81d1314664736f6c63430008180033",
  "linkReferences": {},
  "deployedLinkReferences": {}
}